{
  "contractName": "Assembly",
  "abi": [
    {
      "inputs": [
        {
          "internalType": "string",
          "name": "_identifier",
          "type": "string"
        },
        {
          "internalType": "address",
          "name": "_signatory",
          "type": "address"
        }
      ],
      "stateMutability": "nonpayable",
      "type": "constructor"
    },
    {
      "anonymous": false,
      "inputs": [
        {
          "indexed": false,
          "internalType": "address",
          "name": "to",
          "type": "address"
        },
        {
          "indexed": false,
          "internalType": "uint256",
          "name": "amount",
          "type": "uint256"
        }
      ],
      "name": "feePaid",
      "type": "event"
    },
    {
      "anonymous": false,
      "inputs": [
        {
          "indexed": false,
          "internalType": "address",
          "name": "",
          "type": "address"
        }
      ],
      "name": "votingCreated",
      "type": "event"
    },
    {
      "inputs": [
        {
          "internalType": "address payable",
          "name": "newOwner",
          "type": "address"
        }
      ],
      "name": "changeOwner",
      "outputs": [],
      "stateMutability": "nonpayable",
      "type": "function"
    },
    {
      "inputs": [],
      "name": "getOwner",
      "outputs": [
        {
          "internalType": "address payable",
          "name": "",
          "type": "address"
        }
      ],
      "stateMutability": "view",
      "type": "function"
    },
    {
      "inputs": [],
      "name": "signatory",
      "outputs": [
        {
          "internalType": "address",
          "name": "",
          "type": "address"
        }
      ],
      "stateMutability": "view",
      "type": "function"
    },
    {
      "inputs": [],
      "name": "withdraw",
      "outputs": [],
      "stateMutability": "nonpayable",
      "type": "function"
    },
    {
      "inputs": [],
      "name": "identifier",
      "outputs": [
        {
          "internalType": "string",
          "name": "",
          "type": "string"
        }
      ],
      "stateMutability": "view",
      "type": "function"
    },
    {
      "inputs": [
        {
          "internalType": "string",
          "name": "s",
          "type": "string"
        }
      ],
      "name": "registrations",
      "outputs": [
        {
          "internalType": "address",
          "name": "",
          "type": "address"
        }
      ],
      "stateMutability": "view",
      "type": "function"
    },
    {
      "inputs": [
        {
          "internalType": "address",
          "name": "a",
          "type": "address"
        }
      ],
      "name": "shareholders",
      "outputs": [
        {
          "internalType": "string",
          "name": "",
          "type": "string"
        }
      ],
      "stateMutability": "view",
      "type": "function"
    },
    {
      "inputs": [
        {
          "internalType": "uint256",
          "name": "i",
          "type": "uint256"
        }
      ],
      "name": "secrets",
      "outputs": [
        {
          "internalType": "string",
          "name": "",
          "type": "string"
        }
      ],
      "stateMutability": "view",
      "type": "function"
    },
    {
      "inputs": [
        {
          "internalType": "uint256",
          "name": "i",
          "type": "uint256"
        }
      ],
      "name": "votings",
      "outputs": [
        {
          "internalType": "address",
          "name": "",
          "type": "address"
        }
      ],
      "stateMutability": "view",
      "type": "function"
    },
    {
      "inputs": [],
      "name": "numSecrets",
      "outputs": [
        {
          "internalType": "uint256",
          "name": "",
          "type": "uint256"
        }
      ],
      "stateMutability": "view",
      "type": "function"
    },
    {
      "inputs": [],
      "name": "numVotings",
      "outputs": [
        {
          "internalType": "uint256",
          "name": "",
          "type": "uint256"
        }
      ],
      "stateMutability": "view",
      "type": "function"
    },
    {
      "inputs": [],
      "name": "shares",
      "outputs": [
        {
          "internalType": "address",
          "name": "",
          "type": "address"
        }
      ],
      "stateMutability": "view",
      "type": "function"
    },
    {
      "inputs": [
        {
          "internalType": "string",
          "name": "secret",
          "type": "string"
        },
        {
          "internalType": "uint8",
          "name": "v",
          "type": "uint8"
        },
        {
          "internalType": "bytes32",
          "name": "r",
          "type": "bytes32"
        },
        {
          "internalType": "bytes32",
          "name": "s",
          "type": "bytes32"
        }
      ],
      "name": "register",
      "outputs": [],
      "stateMutability": "nonpayable",
      "type": "function"
    },
    {
      "inputs": [
        {
          "internalType": "address",
          "name": "_shareholder",
          "type": "address"
        },
        {
          "internalType": "uint256",
          "name": "_shares",
          "type": "uint256"
        },
        {
          "internalType": "uint8",
          "name": "v",
          "type": "uint8"
        },
        {
          "internalType": "bytes32",
          "name": "r",
          "type": "bytes32"
        },
        {
          "internalType": "bytes32",
          "name": "s",
          "type": "bytes32"
        }
      ],
      "name": "setShareholder",
      "outputs": [],
      "stateMutability": "nonpayable",
      "type": "function"
    },
    {
      "inputs": [
        {
          "internalType": "address[]",
          "name": "_shareholders",
          "type": "address[]"
        },
        {
          "internalType": "uint256[]",
          "name": "_shares",
          "type": "uint256[]"
        },
        {
          "internalType": "uint8",
          "name": "v",
          "type": "uint8"
        },
        {
          "internalType": "bytes32",
          "name": "r",
          "type": "bytes32"
        },
        {
          "internalType": "bytes32",
          "name": "s",
          "type": "bytes32"
        }
      ],
      "name": "setShareholders",
      "outputs": [],
      "stateMutability": "nonpayable",
      "type": "function"
    },
    {
      "inputs": [
        {
          "internalType": "string",
          "name": "title",
          "type": "string"
        },
        {
          "internalType": "string",
          "name": "proposal",
          "type": "string"
        },
        {
          "internalType": "uint8",
          "name": "v",
          "type": "uint8"
        },
        {
          "internalType": "bytes32",
          "name": "r",
          "type": "bytes32"
        },
        {
          "internalType": "bytes32",
          "name": "s",
          "type": "bytes32"
        }
      ],
      "name": "newVoting",
      "outputs": [],
      "stateMutability": "nonpayable",
      "type": "function"
    },
    {
      "inputs": [
        {
          "internalType": "uint8",
          "name": "v",
          "type": "uint8"
        },
        {
          "internalType": "bytes32",
          "name": "r",
          "type": "bytes32"
        },
        {
          "internalType": "bytes32",
          "name": "s",
          "type": "bytes32"
        }
      ],
      "name": "lock",
      "outputs": [],
      "stateMutability": "nonpayable",
      "type": "function"
    }
  ],
  "bytecode": "0x60806040523480156200001157600080fd5b50604051620014cc380380620014cc833981810160405260408110156200003757600080fd5b81019080805160405193929190846401000000008211156200005857600080fd5b9083019060208201858111156200006e57600080fd5b82516401000000008111828201881017156200008957600080fd5b82525081516020918201929091019080838360005b83811015620000b85781810151838201526020016200009e565b50505050905090810190601f168015620000e65780820380516001836020036101000a031916815260200191505b50604081815260209283015160008054336001600160a01b0319918216178255600180549091166001600160a01b038416179055635d93899b60e11b845260026004850181815260248601948552895160448701528951939850738790a9166e24ea0212f69843af1cc139c8cf7849975063bb2713369691958a9591949193606490910192860191908190849084905b838110156200019057818101518382015260200162000176565b50505050905090810190601f168015620001be5780820380516001836020036101000a031916815260200191505b50935050505060006040518083038186803b158015620001dd57600080fd5b505af4158015620001f2573d6000803e3d6000fd5b5050505050506112c480620002086000396000f3fe608060405234801561001057600080fd5b506004361061010b5760003560e01c80637998a1c4116100a2578063a598d03c11610071578063a598d03c14610469578063a5ba7b4c14610486578063a6f9dae11461052a578063de9702a414610550578063e35556821461056d5761010b565b80637998a1c41461039f5780638533426f146103a7578063893d20e814610459578063913123ca146104615761010b565b80635c2930ad116100de5780635c2930ad146101995780635e5489541461023457806361174ccf1461036b5780636f460f95146103975761010b565b806303314efa14610110578063049b81f4146101345780633ccfd60b1461014e5780634305a99414610158575b600080fd5b61011861069e565b604080516001600160a01b039092168252519081900360200190f35b61013c6106ad565b60408051918252519081900360200190f35b6101566106b3565b005b610156600480360360a081101561016e57600080fd5b506001600160a01b038135169060208101359060ff6040820135169060608101359060800135610739565b6101bf600480360360208110156101af57600080fd5b50356001600160a01b031661083f565b6040805160208082528351818301528351919283929083019185019080838360005b838110156101f95781810151838201526020016101e1565b50505050905090810190601f1680156102265780820380516001836020036101000a031916815260200191505b509250505060405180910390f35b610156600480360360a081101561024a57600080fd5b810190602081018135600160201b81111561026457600080fd5b82018360208201111561027657600080fd5b803590602001918460018302840111600160201b8311171561029757600080fd5b91908080601f0160208091040260200160405190810160405280939291908181526020018383808284376000920191909152509295949360208101935035915050600160201b8111156102e957600080fd5b8201836020820111156102fb57600080fd5b803590602001918460018302840111600160201b8311171561031c57600080fd5b91908080601f0160208091040260200160405190810160405280939291908181526020018383808284376000920191909152509295505060ff83351693505050602081013590604001356108ea565b6101566004803603606081101561038157600080fd5b5060ff8135169060208101359060400135610c10565b61013c610cf8565b6101bf610cfe565b610156600480360360808110156103bd57600080fd5b810190602081018135600160201b8111156103d757600080fd5b8201836020820111156103e957600080fd5b803590602001918460018302840111600160201b8311171561040a57600080fd5b91908080601f0160208091040260200160405190810160405280939291908181526020018383808284376000920191909152509295505060ff8335169350505060208101359060400135610d94565b610118610ee3565b610118610ef2565b6101186004803603602081101561047f57600080fd5b5035610f01565b6101186004803603602081101561049c57600080fd5b810190602081018135600160201b8111156104b657600080fd5b8201836020820111156104c857600080fd5b803590602001918460018302840111600160201b831117156104e957600080fd5b91908080601f016020809104026020016040519081016040528093929190818152602001838380828437600092019190915250929550610f2e945050505050565b6101566004803603602081101561054057600080fd5b50356001600160a01b0316610fa2565b6101bf6004803603602081101561056657600080fd5b503561100d565b610156600480360360a081101561058357600080fd5b810190602081018135600160201b81111561059d57600080fd5b8201836020820111156105af57600080fd5b803590602001918460208302840111600160201b831117156105d057600080fd5b9190808060200260200160405190810160405280939291908181526020018383602002808284376000920191909152509295949360208101935035915050600160201b81111561061f57600080fd5b82018360208201111561063157600080fd5b803590602001918460208302840111600160201b8311171561065257600080fd5b9190808060200260200160405190810160405280939291908181526020018383602002808284376000920191909152509295505060ff8335169350505060208101359060400135611082565b6002546001600160a01b031690565b60055490565b6000546001600160a01b031633146106fc5760405162461bcd60e51b815260040180806020018281038252602d815260200180611262602d913960400191505060405180910390fd5b600080546040516001600160a01b03909116914780156108fc02929091818181858888f19350505050158015610736573d6000803e3d6000fd5b50565b6000546001600160a01b031633146107825760405162461bcd60e51b815260040180806020018281038252602d815260200180611262602d913960400191505060405180910390fd5b604080516001600160a01b038716602082018190528183018790523060608084019190915283518084039091018152608083018085526321c9b3f560e11b90526002608484015260a483019190915260c482018790529151859185918591738790a9166e24ea0212f69843af1cc139c8cf78499163439367ea9160e480820192600092909190829003018186803b15801561081c57600080fd5b505af4158015610830573d6000803e3d6000fd5b50505050505050505050505050565b6001600160a01b03811660009081526004602090815260409182902080548351601f60026000196101006001861615020190931692909204918201849004840281018401909452808452606093928301828280156108de5780601f106108b3576101008083540402835291602001916108de565b820191906000526020600020905b8154815290600101906020018083116108c157829003601f168201915b50505050509050919050565b6000546001600160a01b031633146109335760405162461bcd60e51b815260040180806020018281038252602d815260200180611262602d913960400191505060405180910390fd5b848430604051602001808060200180602001846001600160a01b03168152602001838103835286818151815260200191508051906020019080838360005b83811015610989578181015183820152602001610971565b50505050905090810190601f1680156109b65780820380516001836020036101000a031916815260200191505b50838103825285518152855160209182019187019080838360005b838110156109e95781810151838201526020016109d1565b50505050905090810190601f168015610a165780820380516001836020036101000a031916815260200191505b50955050505050506040516020818303038152906040528383837fec656b0e44f214844adca783fedea2f65e410c13f37c715fb8b7cf281f79fce06002738790a9166e24ea0212f69843af1cc139c8cf7849632385769190918c8c600160009054906101000a90046001600160a01b031660008054906101000a90046001600160a01b03166040518663ffffffff1660e01b8152600401808681526020018060200180602001856001600160a01b03168152602001846001600160a01b03168152602001838103835287818151815260200191508051906020019080838360005b83811015610b0f578181015183820152602001610af7565b50505050905090810190601f168015610b3c5780820380516001836020036101000a031916815260200191505b50838103825286518152865160209182019188019080838360005b83811015610b6f578181015183820152602001610b57565b50505050905090810190601f168015610b9c5780820380516001836020036101000a031916815260200191505b5097505050505050505060206040518083038186803b158015610bbe57600080fd5b505af4158015610bd2573d6000803e3d6000fd5b505050506040513d6020811015610be857600080fd5b5051604080516001600160a01b039092168252519081900360200190a1505050505050505050565b6000546001600160a01b03163314610c595760405162461bcd60e51b815260040180806020018281038252602d815260200180611262602d913960400191505060405180910390fd5b3060405160200180826001600160a01b031681526020019150506040516020818303038152906040528383836002738790a9166e24ea0212f69843af1cc139c8cf784963ebb82af090916040518263ffffffff1660e01b81526004018082815260200191505060006040518083038186803b158015610cd757600080fd5b505af4158015610ceb573d6000803e3d6000fd5b5050505050505050505050565b60065490565b60078054604080516020601f6002600019610100600188161502019095169490940493840181900481028201810190925282815260609390929091830182828015610d8a5780601f10610d5f57610100808354040283529160200191610d8a565b820191906000526020600020905b815481529060010190602001808311610d6d57829003601f168201915b5050505050905090565b6000546001600160a01b03163314610ddd5760405162461bcd60e51b815260040180806020018281038252602d815260200180611262602d913960400191505060405180910390fd5b6002738790a9166e24ea0212f69843af1cc139c8cf7849638792d91c909186308787876040518763ffffffff1660e01b81526004018087815260200180602001866001600160a01b031681526020018560ff168152602001848152602001838152602001828103825287818151815260200191508051906020019080838360005b83811015610e76578181015183820152602001610e5e565b50505050905090810190601f168015610ea35780820380516001836020036101000a031916815260200191505b5097505050505050505060006040518083038186803b158015610ec557600080fd5b505af4158015610ed9573d6000803e3d6000fd5b5050505050505050565b6000546001600160a01b031690565b6001546001600160a01b031681565b600060026004018281548110610f1357fe5b6000918252602090912001546001600160a01b031692915050565b60006002600101826040518082805190602001908083835b60208310610f655780518252601f199092019160209182019101610f46565b51815160209384036101000a60001901801990921691161790529201948552506040519384900301909220546001600160a01b0316949350505050565b6000546001600160a01b03163314610feb5760405162461bcd60e51b815260040180806020018281038252602d815260200180611262602d913960400191505060405180910390fd5b600080546001600160a01b0319166001600160a01b0392909216919091179055565b60606002600301828154811061101f57fe5b600091825260209182902001805460408051601f60026000196101006001871615020190941693909304928301859004850281018501909152818152928301828280156108de5780601f106108b3576101008083540402835291602001916108de565b6000546001600160a01b031633146110cb5760405162461bcd60e51b815260040180806020018281038252602d815260200180611262602d913960400191505060405180910390fd5b848430604051602001808060200180602001846001600160a01b03168152602001838103835286818151815260200191508051906020019060200280838360005b8381101561112457818101518382015260200161110c565b50505050905001838103825285818151815260200191508051906020019060200280838360005b8381101561116357818101518382015260200161114b565b50505050905001955050505050506040516020818303038152906040528383836002738790a9166e24ea0212f69843af1cc139c8cf7849636500823390918b8b6040518463ffffffff1660e01b8152600401808481526020018060200180602001838103835285818151815260200191508051906020019060200280838360005b838110156111fc5781810151838201526020016111e4565b50505050905001838103825284818151815260200191508051906020019060200280838360005b8381101561123b578181015183820152602001611223565b505050509050019550505050505060006040518083038186803b15801561081c57600080fdfe6163636573732064656e6965642c20796f7520617265206e6f742074686520636f6e7472616374206f776e6572a2646970667358221220e0a577de20295b7be22b4e94f9af3ea04a1a86322802a3be6947faacf07162c464736f6c634300060c0033",
  "immutableReferences": {},
  "source": "// SPDX-License-Identifier: MIT\r\n\r\npragma solidity >=0.0;\r\n\r\nimport \"./owned.sol\";\r\nimport \"./signed.sol\";\r\nimport \"./LibAssembly.sol\";\r\n\r\ncontract Assembly is owned, signed {\r\n    using LibAssembly for LibAssembly.Data;\r\n    LibAssembly.Data private data;\r\n\r\n    constructor(\r\n        string memory _identifier,\r\n        address _signatory\r\n    ) public signed(_signatory) {\r\n        data.construct(_identifier);\r\n    }\r\n\r\n    // getter\r\n\r\n    function identifier() public view returns (string memory) {\r\n        return data.identifier;\r\n    }\r\n\r\n    function registrations(string memory s) public view returns (address) {\r\n        return data.registrations[s];\r\n    }\r\n\r\n    function shareholders(address a) public view returns (string memory) {\r\n        return data.shareholders[a];\r\n    }\r\n\r\n    function secrets(uint256 i) public view returns (string memory) {\r\n        return data.secrets[i];\r\n    }\r\n\r\n    function votings(uint256 i) public view returns (address) {\r\n        return data.votings[i];\r\n    }\r\n\r\n    function numSecrets() public view returns (uint256) {\r\n        return data.secrets.length;\r\n    }\r\n\r\n    function numVotings() public view returns (uint256) {\r\n        return data.votings.length;\r\n    }\r\n\r\n    function shares() public view returns (address) {\r\n        return address(data.shares);\r\n    }\r\n\r\n    // shareholder's access, security by signed messages\r\n\r\n    function register(\r\n        string memory secret,\r\n        uint8 v,\r\n        bytes32 r,\r\n        bytes32 s\r\n    ) public restrict {\r\n        data.register(secret, address(this), v, r, s);\r\n    }\r\n\r\n    // administration, restricted to assembly owner\r\n\r\n    function setShareholder(\r\n        address _shareholder,\r\n        uint256 _shares,\r\n        uint8 v,\r\n        bytes32 r,\r\n        bytes32 s\r\n    )\r\n        public\r\n        restrict\r\n        issigned(abi.encode(_shareholder, _shares, address(this)), v, r, s)\r\n    {\r\n        data.setShareholder(_shareholder, _shares);\r\n    }\r\n\r\n    function setShareholders(\r\n        address[] memory _shareholders,\r\n        uint256[] memory _shares,\r\n        uint8 v,\r\n        bytes32 r,\r\n        bytes32 s\r\n    )\r\n        public\r\n        restrict\r\n        issigned(abi.encode(_shareholders, _shares, address(this)), v, r, s)\r\n    {\r\n        data.setShareholders(_shareholders, _shares); \r\n    }\r\n\r\n    event votingCreated(address);\r\n\r\n    function newVoting(\r\n        string memory title,\r\n        string memory proposal,\r\n        uint8 v,\r\n        bytes32 r,\r\n        bytes32 s\r\n    )\r\n        public\r\n        restrict\r\n        issigned(abi.encode(title, proposal, address(this)), v, r, s)\r\n    {\r\n        emit votingCreated(data.newVoting(title, proposal, signatory, owner));\r\n    }\r\n\r\n    function lock(\r\n        uint8 v,\r\n        bytes32 r,\r\n        bytes32 s\r\n    ) public restrict issigned(abi.encode(address(this)), v, r, s) {\r\n        data.lock();\r\n    }\r\n}\r\n",
  "sourcePath": "D:/Development/github/assembly-contracts/contracts/Assembly.sol",
  "compiler": {
    "name": "solc",
    "version": "0.6.12+commit.27d51765.Emscripten.clang"
  },
  "schemaVersion": "3.3.2",
  "updatedAt": "2021-01-07T13:20:38.275Z",
  "devdoc": {
    "kind": "dev",
    "methods": {},
    "version": 1
  },
  "userdoc": {
    "kind": "user",
    "methods": {},
    "version": 1
  }
}