{
  "contractName": "libsign",
  "abi": [
    {
      "inputs": [
        {
          "internalType": "bytes",
          "name": "secret",
          "type": "bytes"
        },
        {
          "internalType": "uint8",
          "name": "v",
          "type": "uint8"
        },
        {
          "internalType": "bytes32",
          "name": "r",
          "type": "bytes32"
        },
        {
          "internalType": "bytes32",
          "name": "s",
          "type": "bytes32"
        }
      ],
      "name": "verify",
      "outputs": [
        {
          "internalType": "address",
          "name": "sender",
          "type": "address"
        }
      ],
      "stateMutability": "pure",
      "type": "function"
    }
  ],
  "bytecode": "0x610275610026600b82828239805160001a60731461001957fe5b30600052607381538281f3fe73000000000000000000000000000000000000000030146080604052600436106100355760003560e01c80632fd1603a1461003a575b600080fd5b6100ee6004803603608081101561005057600080fd5b81019060208101813564010000000081111561006b57600080fd5b82018360208201111561007d57600080fd5b8035906020019184600183028401116401000000008311171561009f57600080fd5b91908080601f0160208091040260200160405190810160405280939291908181526020018383808284376000920191909152509295505060ff833516935050506020810135906040013561010a565b604080516001600160a01b039092168252519081900360200190f35b600080855111610156576040805162461bcd60e51b81526020600482015260126024820152711b9bdd0818481d985b1a59081cd958dc995d60721b604482015290519081900360640190fd5b6001858051906020012085858560405160008152602001604052604051808581526020018460ff1681526020018381526020018281526020019450505050506020604051602081039080840390855afa1580156101b7573d6000803e3d6000fd5b5050604051601f1901519150506001600160a01b0381166102095760405162461bcd60e51b815260040180806020018281038252602e815260200180610212602e913960400191505060405180910390fd5b94935050505056fe6964656e74696669636174696f6e206661696c65642064756520746f20696e76616c6964207369676e6174757265a2646970667358221220a2a82ca5b0cb0b7a6157c7859b7424a2285e4f1c4e769ba3fed59839c01ecedd64736f6c634300060c0033",
  "immutableReferences": {},
  "source": "// SPDX-License-Identifier: MIT\r\n\r\npragma solidity ^0.6.12;\r\n\r\nlibrary libsign {\r\n    // verify sender of a signed message\r\n    function verify(\r\n        bytes memory secret,\r\n        uint8 v,\r\n        bytes32 r,\r\n        bytes32 s\r\n    ) public pure returns (address sender) {\r\n        require(secret.length > 0, \"not a valid secret\");\r\n        sender = ecrecover(keccak256(secret), v, r, s);\r\n        require(\r\n            sender != address(0x0),\r\n            \"identification failed due to invalid signature\"\r\n        );\r\n    }\r\n}",
  "sourcePath": "D:\\dev\\github\\assembly-contracts\\contracts\\libsign.sol",
  "compiler": {
    "name": "solc",
    "version": "0.6.12+commit.27d51765.Emscripten.clang"
  },
  "schemaVersion": "3.3.2",
  "updatedAt": "2021-03-24T14:15:06.899Z",
  "devdoc": {
    "kind": "dev",
    "methods": {},
    "version": 1
  },
  "userdoc": {
    "kind": "user",
    "methods": {},
    "version": 1
  }
}