{
  "contractName": "owned",
  "abi": [
    {
      "inputs": [],
      "stateMutability": "nonpayable",
      "type": "constructor"
    },
    {
      "anonymous": false,
      "inputs": [
        {
          "indexed": false,
          "internalType": "address",
          "name": "to",
          "type": "address"
        },
        {
          "indexed": false,
          "internalType": "uint256",
          "name": "amount",
          "type": "uint256"
        }
      ],
      "name": "feePaid",
      "type": "event"
    },
    {
      "inputs": [],
      "name": "getOwner",
      "outputs": [
        {
          "internalType": "address payable",
          "name": "",
          "type": "address"
        }
      ],
      "stateMutability": "view",
      "type": "function"
    },
    {
      "inputs": [
        {
          "internalType": "address payable",
          "name": "newOwner",
          "type": "address"
        }
      ],
      "name": "changeOwner",
      "outputs": [],
      "stateMutability": "nonpayable",
      "type": "function"
    },
    {
      "inputs": [],
      "name": "withdraw",
      "outputs": [],
      "stateMutability": "nonpayable",
      "type": "function"
    }
  ],
  "bytecode": "0x608060405234801561001057600080fd5b50600080546001600160a01b031916331790556101fd806100326000396000f3fe608060405234801561001057600080fd5b50600436106100415760003560e01c80633ccfd60b14610046578063893d20e814610050578063a6f9dae114610074575b600080fd5b61004e61009a565b005b610058610120565b604080516001600160a01b039092168252519081900360200190f35b61004e6004803603602081101561008a57600080fd5b50356001600160a01b031661012f565b6000546001600160a01b031633146100e35760405162461bcd60e51b815260040180806020018281038252602d81526020018061019b602d913960400191505060405180910390fd5b600080546040516001600160a01b03909116914780156108fc02929091818181858888f1935050505015801561011d573d6000803e3d6000fd5b50565b6000546001600160a01b031690565b6000546001600160a01b031633146101785760405162461bcd60e51b815260040180806020018281038252602d81526020018061019b602d913960400191505060405180910390fd5b600080546001600160a01b0319166001600160a01b039290921691909117905556fe6163636573732064656e6965642c20796f7520617265206e6f742074686520636f6e7472616374206f776e6572a2646970667358221220623a3f1ca891aa1d0fd039d17bff31fc27d9077021932b05862f3e99ff89a52464736f6c634300060c0033",
  "immutableReferences": {},
  "source": "// SPDX-License-Identifier: MIT\r\n\r\npragma solidity >=0.0;\r\n\r\ncontract owned {\r\n    address payable internal owner;\r\n    event feePaid(address to, uint amount);\r\n    // creator is owner\r\n    constructor() public {\r\n        owner = msg.sender;\r\n    }\r\n    // only owner is allowed to call restricted function\r\n    modifier restrict {\r\n        require(msg.sender==owner, \"access denied, you are not the contract owner\");\r\n        _;\r\n    }\r\n    // requires a fee for the owner\r\n    modifier fee(uint amount) {\r\n        require(msg.value>=amount, \"not enough payment for the fee\");\r\n        _;\r\n        owner.transfer(amount);\r\n        emit feePaid(owner, amount);\r\n    }\r\n\r\n    function getOwner() view public returns (address payable) {\r\n        return owner;\r\n    }\r\n\r\n    // allow update of the owner\r\n    function changeOwner(address payable newOwner) public restrict {\r\n        owner = newOwner;\r\n    }\r\n\r\n    // move whole balance to the owner\r\n    function withdraw() public restrict {\r\n        owner.transfer(address(this).balance);\r\n    }\r\n\r\n}",
  "sourcePath": "D:\\Development\\github\\assembly-contracts\\contracts\\owned.sol",
  "compiler": {
    "name": "solc",
    "version": "0.6.12+commit.27d51765.Emscripten.clang"
  },
  "schemaVersion": "3.3.2",
  "updatedAt": "2021-01-07T13:20:38.305Z",
  "devdoc": {
    "kind": "dev",
    "methods": {},
    "version": 1
  },
  "userdoc": {
    "kind": "user",
    "methods": {},
    "version": 1
  }
}