{
  "contractName": "Shares",
  "abi": [
    {
      "anonymous": false,
      "inputs": [
        {
          "indexed": true,
          "internalType": "address",
          "name": "_owner",
          "type": "address"
        },
        {
          "indexed": true,
          "internalType": "address",
          "name": "_spender",
          "type": "address"
        },
        {
          "indexed": false,
          "internalType": "uint256",
          "name": "_value",
          "type": "uint256"
        }
      ],
      "name": "Approval",
      "type": "event"
    },
    {
      "anonymous": false,
      "inputs": [
        {
          "indexed": true,
          "internalType": "address",
          "name": "_from",
          "type": "address"
        },
        {
          "indexed": true,
          "internalType": "address",
          "name": "_to",
          "type": "address"
        },
        {
          "indexed": false,
          "internalType": "uint256",
          "name": "_value",
          "type": "uint256"
        }
      ],
      "name": "Transfer",
      "type": "event"
    },
    {
      "anonymous": false,
      "inputs": [
        {
          "indexed": false,
          "internalType": "address",
          "name": "to",
          "type": "address"
        },
        {
          "indexed": false,
          "internalType": "uint256",
          "name": "amount",
          "type": "uint256"
        }
      ],
      "name": "feePaid",
      "type": "event"
    },
    {
      "inputs": [
        {
          "internalType": "address payable",
          "name": "newOwner",
          "type": "address"
        }
      ],
      "name": "changeOwner",
      "outputs": [],
      "stateMutability": "nonpayable",
      "type": "function"
    },
    {
      "inputs": [],
      "name": "getOwner",
      "outputs": [
        {
          "internalType": "address payable",
          "name": "",
          "type": "address"
        }
      ],
      "stateMutability": "view",
      "type": "function"
    },
    {
      "inputs": [],
      "name": "locked",
      "outputs": [
        {
          "internalType": "bool",
          "name": "",
          "type": "bool"
        }
      ],
      "stateMutability": "view",
      "type": "function"
    },
    {
      "inputs": [],
      "name": "withdraw",
      "outputs": [],
      "stateMutability": "nonpayable",
      "type": "function"
    },
    {
      "inputs": [
        {
          "internalType": "address",
          "name": "shareholder",
          "type": "address"
        },
        {
          "internalType": "uint256",
          "name": "shares",
          "type": "uint256"
        }
      ],
      "name": "setShareholder",
      "outputs": [],
      "stateMutability": "nonpayable",
      "type": "function"
    },
    {
      "inputs": [
        {
          "internalType": "address[]",
          "name": "_shareholders",
          "type": "address[]"
        },
        {
          "internalType": "uint256[]",
          "name": "_shares",
          "type": "uint256[]"
        }
      ],
      "name": "setShareholders",
      "outputs": [],
      "stateMutability": "nonpayable",
      "type": "function"
    },
    {
      "inputs": [],
      "name": "lock",
      "outputs": [],
      "stateMutability": "nonpayable",
      "type": "function"
    },
    {
      "inputs": [],
      "name": "name",
      "outputs": [
        {
          "internalType": "string",
          "name": "",
          "type": "string"
        }
      ],
      "stateMutability": "view",
      "type": "function"
    },
    {
      "inputs": [],
      "name": "symbol",
      "outputs": [
        {
          "internalType": "string",
          "name": "",
          "type": "string"
        }
      ],
      "stateMutability": "view",
      "type": "function"
    },
    {
      "inputs": [],
      "name": "decimals",
      "outputs": [
        {
          "internalType": "uint8",
          "name": "",
          "type": "uint8"
        }
      ],
      "stateMutability": "view",
      "type": "function"
    },
    {
      "inputs": [],
      "name": "totalSupply",
      "outputs": [
        {
          "internalType": "uint256",
          "name": "",
          "type": "uint256"
        }
      ],
      "stateMutability": "view",
      "type": "function"
    },
    {
      "inputs": [
        {
          "internalType": "address",
          "name": "shareholder",
          "type": "address"
        }
      ],
      "name": "balanceOf",
      "outputs": [
        {
          "internalType": "uint256",
          "name": "balance",
          "type": "uint256"
        }
      ],
      "stateMutability": "view",
      "type": "function"
    },
    {
      "inputs": [
        {
          "internalType": "address",
          "name": "",
          "type": "address"
        },
        {
          "internalType": "uint256",
          "name": "",
          "type": "uint256"
        }
      ],
      "name": "transfer",
      "outputs": [
        {
          "internalType": "bool",
          "name": "success",
          "type": "bool"
        }
      ],
      "stateMutability": "nonpayable",
      "type": "function"
    },
    {
      "inputs": [
        {
          "internalType": "address",
          "name": "",
          "type": "address"
        },
        {
          "internalType": "address",
          "name": "",
          "type": "address"
        },
        {
          "internalType": "uint256",
          "name": "",
          "type": "uint256"
        }
      ],
      "name": "transferFrom",
      "outputs": [
        {
          "internalType": "bool",
          "name": "success",
          "type": "bool"
        }
      ],
      "stateMutability": "nonpayable",
      "type": "function"
    },
    {
      "inputs": [
        {
          "internalType": "address",
          "name": "",
          "type": "address"
        },
        {
          "internalType": "uint256",
          "name": "",
          "type": "uint256"
        }
      ],
      "name": "approve",
      "outputs": [
        {
          "internalType": "bool",
          "name": "success",
          "type": "bool"
        }
      ],
      "stateMutability": "nonpayable",
      "type": "function"
    },
    {
      "inputs": [
        {
          "internalType": "address",
          "name": "",
          "type": "address"
        },
        {
          "internalType": "address",
          "name": "",
          "type": "address"
        }
      ],
      "name": "allowance",
      "outputs": [
        {
          "internalType": "uint256",
          "name": "remaining",
          "type": "uint256"
        }
      ],
      "stateMutability": "view",
      "type": "function"
    }
  ],
  "bytecode": "0x608060405260006002556003805460ff1916905534801561001f57600080fd5b50600080546001600160a01b03191633179055610954806100416000396000f3fe608060405234801561001057600080fd5b50600436106101005760003560e01c806395d89b4111610097578063c8d83d3511610066578063c8d83d35146102de578063cf30901214610405578063dd62ed3e1461040d578063f83d08ba1461043b57610100565b806395d89b4114610284578063a6f9dae11461028c578063a9059cbb14610182578063a94a2cf3146102b257610100565b8063313ce567116100d3578063313ce567146102125780633ccfd60b1461023057806370a082311461023a578063893d20e81461026057610100565b806306fdde0314610105578063095ea7b31461018257806318160ddd146101c257806323b872dd146101dc575b600080fd5b61010d610443565b6040805160208082528351818301528351919283929083019185019080838360005b8381101561014757818101518382015260200161012f565b50505050905090810190601f1680156101745780820380516001836020036101000a031916815260200191505b509250505060405180910390f35b6101ae6004803603604081101561019857600080fd5b506001600160a01b038135169060200135610473565b604080519115158252519081900360200190f35b6101ca61047b565b60408051918252519081900360200190f35b6101ae600480360360608110156101f257600080fd5b506001600160a01b03813581169160208101359091169060400135610481565b61021a61048a565b6040805160ff9092168252519081900360200190f35b61023861048f565b005b6101ca6004803603602081101561025057600080fd5b50356001600160a01b0316610515565b610268610530565b604080516001600160a01b039092168252519081900360200190f35b61010d61053f565b610238600480360360208110156102a257600080fd5b50356001600160a01b031661055b565b610238600480360360408110156102c857600080fd5b506001600160a01b0381351690602001356105c6565b610238600480360360408110156102f457600080fd5b81019060208101813564010000000081111561030f57600080fd5b82018360208201111561032157600080fd5b8035906020019184602083028401116401000000008311171561034357600080fd5b919080806020026020016040519081016040528093929190818152602001838360200280828437600092019190915250929594936020810193503591505064010000000081111561039357600080fd5b8201836020820111156103a557600080fd5b803590602001918460208302840111640100000000831117156103c757600080fd5b919080806020026020016040519081016040528093929190818152602001838360200280828437600092019190915250929550610691945050505050565b6101ae610838565b6101ca6004803603604081101561042357600080fd5b506001600160a01b0381358116916020013516610473565b610238610841565b60408051808201909152601681527514da185c995a1bdb19195c8813585b9859d95b595b9d60521b602082015290565b600092915050565b60025490565b60009392505050565b600090565b6000546001600160a01b031633146104d85760405162461bcd60e51b815260040180806020018281038252602d8152602001806108f2602d913960400191505060405180910390fd5b600080546040516001600160a01b03909116914780156108fc02929091818181858888f19350505050158015610512573d6000803e3d6000fd5b50565b6001600160a01b031660009081526001602052604090205490565b6000546001600160a01b031690565b604080518082019091526002815261048d60f31b602082015290565b6000546001600160a01b031633146105a45760405162461bcd60e51b815260040180806020018281038252602d8152602001806108f2602d913960400191505060405180910390fd5b600080546001600160a01b0319166001600160a01b0392909216919091179055565b60035460ff161561061e576040805162461bcd60e51b815260206004820152601f60248201527f636f6e66696775726174696f6e20697320616c7265616479206c6f636b656400604482015290519081900360640190fd5b6000546001600160a01b031633146106675760405162461bcd60e51b815260040180806020018281038252602d8152602001806108f2602d913960400191505060405180910390fd5b6001600160a01b039091166000908152600160205260409020805460028054840191909103905555565b60035460ff16156106e9576040805162461bcd60e51b815260206004820152601f60248201527f636f6e66696775726174696f6e20697320616c7265616479206c6f636b656400604482015290519081900360640190fd5b6000546001600160a01b031633146107325760405162461bcd60e51b815260040180806020018281038252602d8152602001806108f2602d913960400191505060405180910390fd5b805182511461077f576040805162461bcd60e51b81526020600482015260146024820152730c2e4e4c2f240e6d2f4ca40dad2e6e6dac2e8c6d60631b604482015290519081900360640190fd5b60005b8151811015610833576001600084838151811061079b57fe5b60200260200101516001600160a01b03166001600160a01b03168152602001908152602001600020548282815181106107d057fe5b602002602001015160025401036002819055508181815181106107ef57fe5b60200260200101516001600085848151811061080757fe5b6020908102919091018101516001600160a01b0316825281019190915260400160002055600101610782565b505050565b60035460ff1681565b60035460ff1615610899576040805162461bcd60e51b815260206004820152601f60248201527f636f6e66696775726174696f6e20697320616c7265616479206c6f636b656400604482015290519081900360640190fd5b6000546001600160a01b031633146108e25760405162461bcd60e51b815260040180806020018281038252602d8152602001806108f2602d913960400191505060405180910390fd5b6003805460ff1916600117905556fe6163636573732064656e6965642c20796f7520617265206e6f742074686520636f6e7472616374206f776e6572a26469706673582212203ce2d52283002c6f8a3ea06256743e065c2118ec41004153c6d36218babb718364736f6c634300060c0033",
  "immutableReferences": {},
  "source": "// SPDX-License-Identifier: MIT\r\n\r\npragma solidity >=0.4.25 <0.7.0;\r\n\r\nimport \"./TokenErc20Ifc.sol\";\r\nimport \"./owned.sol\";\r\n\r\ncontract Shares is TokenErc20, owned {\r\n    mapping(address => uint256) shareholders;\r\n    uint256 total = 0;\r\n    bool public locked = false; // lock before assembly starts\r\n\r\n    modifier open {\r\n        require(!locked, \"configuration is already locked\");\r\n        _;\r\n    }\r\n\r\n    function setShareholder(address shareholder, uint256 shares)\r\n        public\r\n        open\r\n        restrict\r\n    {\r\n        total = total + shares - shareholders[shareholder]; // remove previous add current\r\n        shareholders[shareholder] = shares;\r\n    }\r\n\r\n    function setShareholders(\r\n        address[] memory _shareholders,\r\n        uint256[] memory _shares\r\n    ) public open restrict {\r\n        require(_shareholders.length == _shares.length, \"array size missmatch\");\r\n        for (uint256 i = 0; i < _shares.length; ++i) {\r\n            total = total + _shares[i] - shareholders[_shareholders[i]]; // remove previous add current\r\n            shareholders[_shareholders[i]] = _shares[i];\r\n        }\r\n    }\r\n\r\n    function lock() public open restrict {\r\n        locked = true;\r\n    }\r\n\r\n    function name() override public view returns (string memory) {\r\n        return \"Shareholder Management\";\r\n    }\r\n\r\n    function symbol() override public view returns (string memory) {\r\n        return \"$h\";\r\n    }\r\n\r\n    function decimals() override public view returns (uint8) {\r\n        return 0;\r\n    }\r\n\r\n    function totalSupply() override public view returns (uint256) {\r\n        return total;\r\n    }\r\n\r\n    function balanceOf(address shareholder)\r\n        public\r\n        override\r\n        view\r\n        returns (uint256 balance)\r\n    {\r\n        return shareholders[shareholder];\r\n    }\r\n\r\n    function transfer(address, uint256) override public returns (bool success) {\r\n        return false;\r\n    }\r\n\r\n    function transferFrom(\r\n        address,\r\n        address,\r\n        uint256\r\n    ) override public returns (bool success) {\r\n        return false;\r\n    }\r\n\r\n    function approve(address, uint256) override public returns (bool success) {\r\n        return false;\r\n    }\r\n\r\n    function allowance(address, address)\r\n        public\r\n        override\r\n        view\r\n        returns (uint256 remaining)\r\n    {\r\n        return 0;\r\n    }\r\n\r\n}",
  "sourcePath": "D:\\Development\\github\\assembly-contracts\\contracts\\Shares.sol",
  "compiler": {
    "name": "solc",
    "version": "0.6.12+commit.27d51765.Emscripten.clang"
  },
  "schemaVersion": "3.3.2",
  "updatedAt": "2021-01-07T13:20:38.292Z",
  "devdoc": {
    "kind": "dev",
    "methods": {},
    "version": 1
  },
  "userdoc": {
    "kind": "user",
    "methods": {},
    "version": 1
  }
}