{
  "contractName": "Voting",
  "abi": [
    {
      "inputs": [
        {
          "internalType": "string",
          "name": "title",
          "type": "string"
        },
        {
          "internalType": "string",
          "name": "proposal",
          "type": "string"
        },
        {
          "internalType": "contract TokenErc20",
          "name": "token",
          "type": "address"
        },
        {
          "internalType": "address",
          "name": "_signatory",
          "type": "address"
        }
      ],
      "stateMutability": "nonpayable",
      "type": "constructor"
    },
    {
      "anonymous": false,
      "inputs": [
        {
          "indexed": false,
          "internalType": "address",
          "name": "to",
          "type": "address"
        },
        {
          "indexed": false,
          "internalType": "uint256",
          "name": "amount",
          "type": "uint256"
        }
      ],
      "name": "feePaid",
      "type": "event"
    },
    {
      "inputs": [
        {
          "internalType": "address payable",
          "name": "newOwner",
          "type": "address"
        }
      ],
      "name": "changeOwner",
      "outputs": [],
      "stateMutability": "nonpayable",
      "type": "function"
    },
    {
      "inputs": [],
      "name": "getOwner",
      "outputs": [
        {
          "internalType": "address payable",
          "name": "",
          "type": "address"
        }
      ],
      "stateMutability": "view",
      "type": "function"
    },
    {
      "inputs": [],
      "name": "signatory",
      "outputs": [
        {
          "internalType": "address",
          "name": "",
          "type": "address"
        }
      ],
      "stateMutability": "view",
      "type": "function"
    },
    {
      "inputs": [],
      "name": "withdraw",
      "outputs": [],
      "stateMutability": "nonpayable",
      "type": "function"
    },
    {
      "inputs": [
        {
          "internalType": "uint256",
          "name": "starttime",
          "type": "uint256"
        },
        {
          "internalType": "uint256",
          "name": "endtime",
          "type": "uint256"
        },
        {
          "internalType": "uint8",
          "name": "v",
          "type": "uint8"
        },
        {
          "internalType": "bytes32",
          "name": "r",
          "type": "bytes32"
        },
        {
          "internalType": "bytes32",
          "name": "s",
          "type": "bytes32"
        }
      ],
      "name": "setVotingTime",
      "outputs": [],
      "stateMutability": "nonpayable",
      "type": "function"
    },
    {
      "inputs": [],
      "name": "title",
      "outputs": [
        {
          "internalType": "string",
          "name": "",
          "type": "string"
        }
      ],
      "stateMutability": "view",
      "type": "function"
    },
    {
      "inputs": [],
      "name": "proposal",
      "outputs": [
        {
          "internalType": "string",
          "name": "",
          "type": "string"
        }
      ],
      "stateMutability": "view",
      "type": "function"
    },
    {
      "inputs": [],
      "name": "starttime",
      "outputs": [
        {
          "internalType": "uint256",
          "name": "",
          "type": "uint256"
        }
      ],
      "stateMutability": "view",
      "type": "function"
    },
    {
      "inputs": [],
      "name": "endtime",
      "outputs": [
        {
          "internalType": "uint256",
          "name": "",
          "type": "uint256"
        }
      ],
      "stateMutability": "view",
      "type": "function"
    },
    {
      "inputs": [],
      "name": "currenttime",
      "outputs": [
        {
          "internalType": "uint256",
          "name": "",
          "type": "uint256"
        }
      ],
      "stateMutability": "view",
      "type": "function"
    },
    {
      "inputs": [],
      "name": "aye",
      "outputs": [
        {
          "internalType": "uint256",
          "name": "",
          "type": "uint256"
        }
      ],
      "stateMutability": "view",
      "type": "function"
    },
    {
      "inputs": [],
      "name": "nay",
      "outputs": [
        {
          "internalType": "uint256",
          "name": "",
          "type": "uint256"
        }
      ],
      "stateMutability": "view",
      "type": "function"
    },
    {
      "inputs": [],
      "name": "abstain",
      "outputs": [
        {
          "internalType": "uint256",
          "name": "",
          "type": "uint256"
        }
      ],
      "stateMutability": "view",
      "type": "function"
    },
    {
      "inputs": [],
      "name": "standDown",
      "outputs": [
        {
          "internalType": "uint256",
          "name": "",
          "type": "uint256"
        }
      ],
      "stateMutability": "view",
      "type": "function"
    },
    {
      "inputs": [],
      "name": "tokenErc20",
      "outputs": [
        {
          "internalType": "contract TokenErc20",
          "name": "",
          "type": "address"
        }
      ],
      "stateMutability": "view",
      "type": "function"
    },
    {
      "inputs": [
        {
          "internalType": "address",
          "name": "i",
          "type": "address"
        }
      ],
      "name": "voters",
      "outputs": [
        {
          "internalType": "bool",
          "name": "",
          "type": "bool"
        }
      ],
      "stateMutability": "view",
      "type": "function"
    },
    {
      "inputs": [],
      "name": "resolution",
      "outputs": [
        {
          "internalType": "bool",
          "name": "",
          "type": "bool"
        },
        {
          "internalType": "uint256",
          "name": "",
          "type": "uint256"
        },
        {
          "internalType": "string",
          "name": "",
          "type": "string"
        },
        {
          "internalType": "string",
          "name": "",
          "type": "string"
        }
      ],
      "stateMutability": "view",
      "type": "function"
    },
    {
      "inputs": [],
      "name": "closed",
      "outputs": [
        {
          "internalType": "bool",
          "name": "",
          "type": "bool"
        }
      ],
      "stateMutability": "view",
      "type": "function"
    },
    {
      "inputs": [],
      "name": "started",
      "outputs": [
        {
          "internalType": "bool",
          "name": "",
          "type": "bool"
        }
      ],
      "stateMutability": "view",
      "type": "function"
    },
    {
      "inputs": [],
      "name": "running",
      "outputs": [
        {
          "internalType": "bool",
          "name": "",
          "type": "bool"
        }
      ],
      "stateMutability": "view",
      "type": "function"
    },
    {
      "inputs": [],
      "name": "accepted",
      "outputs": [
        {
          "internalType": "bool",
          "name": "",
          "type": "bool"
        }
      ],
      "stateMutability": "view",
      "type": "function"
    },
    {
      "inputs": [],
      "name": "rejected",
      "outputs": [
        {
          "internalType": "bool",
          "name": "",
          "type": "bool"
        }
      ],
      "stateMutability": "view",
      "type": "function"
    },
    {
      "inputs": [],
      "name": "votes",
      "outputs": [
        {
          "internalType": "uint256",
          "name": "",
          "type": "uint256"
        },
        {
          "internalType": "uint256",
          "name": "",
          "type": "uint256"
        }
      ],
      "stateMutability": "view",
      "type": "function"
    },
    {
      "inputs": [
        {
          "internalType": "address",
          "name": "sender",
          "type": "address"
        }
      ],
      "name": "canVote",
      "outputs": [
        {
          "internalType": "bool",
          "name": "",
          "type": "bool"
        }
      ],
      "stateMutability": "view",
      "type": "function"
    },
    {
      "inputs": [
        {
          "internalType": "enum LibVoting.Vote",
          "name": "vote",
          "type": "uint8"
        },
        {
          "internalType": "uint8",
          "name": "v",
          "type": "uint8"
        },
        {
          "internalType": "bytes32",
          "name": "r",
          "type": "bytes32"
        },
        {
          "internalType": "bytes32",
          "name": "s",
          "type": "bytes32"
        }
      ],
      "name": "castVote",
      "outputs": [],
      "stateMutability": "nonpayable",
      "type": "function"
    }
  ],
  "bytecode": "0x60806040523480156200001157600080fd5b506040516200115938038062001159833981810160405260808110156200003757600080fd5b81019080805160405193929190846401000000008211156200005857600080fd5b9083019060208201858111156200006e57600080fd5b82516401000000008111828201881017156200008957600080fd5b82525081516020918201929091019080838360005b83811015620000b85781810151838201526020016200009e565b50505050905090810190601f168015620000e65780820380516001836020036101000a031916815260200191505b50604052602001805160405193929190846401000000008211156200010a57600080fd5b9083019060208201858111156200012057600080fd5b82516401000000008111828201881017156200013b57600080fd5b82525081516020918201929091019080838360005b838110156200016a57818101518382015260200162000150565b50505050905090810190601f168015620001985780820380516001836020036101000a031916815260200191505b5060408181526020838101519390910151600080546001600160a01b031990811633178255600180546001600160a01b0380861691909316179055624e829760e81b855260026004860181815291871660648701526080602487019081528b5160848801528b5197995093975073b32e98b87e03ecd81c47180a0051d9eb6609f06096634e8297009691958c958c958c95949193604483019360a4909301928901918190849084905b838110156200025b57818101518382015260200162000241565b50505050905090810190601f168015620002895780820380516001836020036101000a031916815260200191505b50838103825285518152855160209182019187019080838360005b83811015620002be578181015183820152602001620002a4565b50505050905090810190601f168015620002ec5780820380516001836020036101000a031916815260200191505b50965050505050505060006040518083038186803b1580156200030e57600080fd5b505af415801562000323573d6000803e3d6000fd5b5050505050505050610e1e806200033b6000396000f3fe608060405234801561001057600080fd5b50600436106101735760003560e01c80638da58897116100de578063d13b0e6411610097578063e168c3ec11610071578063e168c3ec1461044f578063ea2fe1a214610470578063fc0f58ad14610478578063fdfd2f751461048057610173565b8063d13b0e6414610437578063d85bd5261461043f578063da5060f71461044757610173565b80638da58897146103ad578063913123ca146103b5578063a3ec138d146103bd578063a6f9dae1146103e3578063adfaa72e14610409578063bf9cfb4a1461042f57610173565b80635baf3e8d116101305780635baf3e8d146102735780635e98e4c71461029757806367fe5a0c1461029f57806371e21495146102a7578063753ec1031461039d578063893d20e8146103a557610173565b80631f2698ab14610178578063211e83d3146101945780632ca126f8146101cc5780633ccfd60b146101e65780634a79d50c146101ee578063597e1fb51461026b575b600080fd5b6101806104b8565b604080519115158252519081900360200190f35b6101ca600480360360808110156101aa57600080fd5b5060ff8135811691602081013590911690604081013590606001356104e0565b005b6101d461069f565b60408051918252519081900360200190f35b6101ca6106a5565b6101f661072b565b6040805160208082528351818301528351919283929083019185019080838360005b83811015610230578181015183820152602001610218565b50505050905090810190601f16801561025d5780820380516001836020036101000a031916815260200191505b509250505060405180910390f35b6101806107be565b61027b6107e4565b604080516001600160a01b039092168252519081900360200190f35b6101d46107f3565b610180610843565b6102af610897565b6040518085151581526020018481526020018060200180602001838103835285818151815260200191508051906020019080838360005b838110156102fe5781810151838201526020016102e6565b50505050905090810190601f16801561032b5780820380516001836020036101000a031916815260200191505b50838103825284518152845160209182019186019080838360005b8381101561035e578181015183820152602001610346565b50505050905090810190601f16801561038b5780820380516001836020036101000a031916815260200191505b50965050505050505060405180910390f35b6101f6610a1a565b61027b610a7b565b6101d4610a8a565b61027b610a90565b610180600480360360208110156103d357600080fd5b50356001600160a01b0316610a9f565b6101ca600480360360208110156103f957600080fd5b50356001600160a01b0316610abd565b6101806004803603602081101561041f57600080fd5b50356001600160a01b0316610b28565b6101d4610b5e565b610180610b62565b610180610bb7565b6101d4610bd6565b610457610c26565b6040805192835260208301919091528051918290030190f35b6101d4610c7c565b6101d4610ccc565b6101ca600480360360a081101561049657600080fd5b5080359060208101359060ff6040820135169060608101359060800135610d1c565b600454600090158015906104cd575060055415155b80156104db57506004544210155b905090565b6000546001600160a01b031633146105295760405162461bcd60e51b815260040180806020018281038252602d815260200180610dbc602d913960400191505060405180910390fd5b6105316107be565b15610583576040805162461bcd60e51b815260206004820152601860248201527f766f74696e6720697320616c726561647920636c6f7365640000000000000000604482015290519081900360640190fd5b61058b6104b8565b6105dc576040805162461bcd60e51b815260206004820152601960248201527f766f74696e67206973206e6f7420796574207374617274656400000000000000604482015290519081900360640190fd5b600273b32e98b87e03ecd81c47180a0051d9eb6609f060634ad1960e909186308787876040518763ffffffff1660e01b81526004018087815260200186600381111561062457fe5b8152602001856001600160a01b031681526020018460ff168152602001838152602001828152602001965050505050505060206040518083038186803b15801561066d57600080fd5b505af4158015610681573d6000803e3d6000fd5b505050506040513d602081101561069757600080fd5b505050505050565b60055490565b6000546001600160a01b031633146106ee5760405162461bcd60e51b815260040180806020018281038252602d815260200180610dbc602d913960400191505060405180910390fd5b600080546040516001600160a01b03909116914780156108fc02929091818181858888f19350505050158015610728573d6000803e3d6000fd5b50565b60028054604080516020601f60001961010060018716150201909416859004938401819004810282018101909252828152606093909290918301828280156107b45780601f10610789576101008083540402835291602001916107b4565b820191906000526020600020905b81548152906001019060200180831161079757829003601f168201915b5050505050905090565b600454600090158015906107d3575060055415155b80156104db57505060055442101590565b600a546001600160a01b031690565b60006107fd6107be565b61083c576040805162461bcd60e51b81526020600482015260156024820152600080516020610d9c833981519152604482015290519081900360640190fd5b5060085490565b600061084d6107be565b61088c576040805162461bcd60e51b81526020600482015260156024820152600080516020610d9c833981519152604482015290519081900360640190fd5b506007546006541190565b6000806060806108a56107be565b6108e4576040805162461bcd60e51b81526020600482015260156024820152600080516020610d9c833981519152604482015290519081900360640190fd5b6108ec610843565b6005546002805460408051602060018416156101000260001901909316849004601f8101849004840282018401909252818152600392909184918301828280156109775780601f1061094c57610100808354040283529160200191610977565b820191906000526020600020905b81548152906001019060200180831161095a57829003601f168201915b5050845460408051602060026001851615610100026000190190941693909304601f810184900484028201840190925281815295975086945092508401905082828015610a055780601f106109da57610100808354040283529160200191610a05565b820191906000526020600020905b8154815290600101906020018083116109e857829003601f168201915b50505050509050935093509350935090919293565b60038054604080516020601f60026000196101006001881615020190951694909404938401819004810282018101909252828152606093909290918301828280156107b45780601f10610789576101008083540402835291602001916107b4565b6000546001600160a01b031690565b60045490565b6001546001600160a01b031681565b6001600160a01b03166000908152600b602052604090205460ff1690565b6000546001600160a01b03163314610b065760405162461bcd60e51b815260040180806020018281038252602d815260200180610dbc602d913960400191505060405180910390fd5b600080546001600160a01b0319166001600160a01b0392909216919091179055565b6000610b326107be565b158015610b5857506001600160a01b0382166000908152600b602052604090205460ff16155b92915050565b4290565b6000610b6c6107be565b610bab576040805162461bcd60e51b81526020600482015260156024820152600080516020610d9c833981519152604482015290519081900360640190fd5b50600754600654111590565b6000610bc16104b8565b80156104db5750610bd06107be565b15905090565b6000610be06107be565b610c1f576040805162461bcd60e51b81526020600482015260156024820152600080516020610d9c833981519152604482015290519081900360640190fd5b5060095490565b600080610c316107be565b610c70576040805162461bcd60e51b81526020600482015260156024820152600080516020610d9c833981519152604482015290519081900360640190fd5b50506006546007549091565b6000610c866107be565b610cc5576040805162461bcd60e51b81526020600482015260156024820152600080516020610d9c833981519152604482015290519081900360640190fd5b5060075490565b6000610cd66107be565b610d15576040805162461bcd60e51b81526020600482015260156024820152600080516020610d9c833981519152604482015290519081900360640190fd5b5060065490565b6040805163133009e560e31b8152600260048201526024810187905260448101869052905173b32e98b87e03ecd81c47180a0051d9eb6609f060916399804f28916064808301926000929190829003018186803b158015610d7c57600080fd5b505af4158015610d90573d6000803e3d6000fd5b50505050505050505056fe766f74696e67206e6f742079657420636c6f73656400000000000000000000006163636573732064656e6965642c20796f7520617265206e6f742074686520636f6e7472616374206f776e6572a2646970667358221220d002c7b2e50499d42d30591ae00341738a200d58f128013a0ef8bdc943828ae264736f6c634300060c0033",
  "immutableReferences": {},
  "source": "// SPDX-License-Identifier: MIT\r\n\r\npragma solidity >=0.0;\r\n\r\nimport \"./owned.sol\";\r\nimport \"./signed.sol\";\r\nimport \"./TokenErc20Ifc.sol\";\r\nimport \"./VotingIfc.sol\";\r\nimport \"./LibVoting.sol\";\r\n\r\ncontract Voting is VotingIfc, owned, signed {\r\n    using LibVoting for LibVoting.Data;\r\n    LibVoting.Data private data;\r\n\r\n    modifier isclosed {\r\n        require(closed(), \"voting not yet closed\");\r\n        _;\r\n    }\r\n\r\n    modifier isRunning {\r\n        require(!closed(), \"voting is already closed\");\r\n        require(started(), \"voting is not yet started\");\r\n        _;\r\n    }\r\n\r\n    constructor(\r\n        string memory title,\r\n        string memory proposal,\r\n        TokenErc20 token,\r\n        address _signatory\r\n    ) public signed(_signatory) {\r\n        data.construct(title, proposal, token);\r\n    }\r\n\r\n    function setVotingTime(\r\n        uint256 starttime,\r\n        uint256 endtime,\r\n        uint8 v,\r\n        bytes32 r,\r\n        bytes32 s\r\n    )\r\n        public\r\n    {\r\n        data.setVotingTime(starttime, endtime);\r\n    }\r\n\r\n    function title() public view returns (string memory) {\r\n        return data.title;\r\n    }\r\n\r\n    function proposal() public view returns (string memory) {\r\n        return data.proposal;\r\n    }\r\n\r\n    function starttime() public view returns (uint256) {\r\n        return data.starttime;\r\n    }\r\n\r\n    function endtime() public view returns (uint256) {\r\n        return data.endtime;\r\n    }\r\n\r\n    function currenttime() public view returns (uint256) {\r\n        return block.timestamp;\r\n    }\r\n\r\n    function aye() public view isclosed returns (uint256) {\r\n        return data.aye;\r\n    }\r\n\r\n    function nay() public view isclosed returns (uint256) {\r\n        return data.nay;\r\n    }\r\n\r\n    function abstain() public view isclosed returns (uint256) {\r\n        return data.abstain;\r\n    }\r\n\r\n    function standDown() public view isclosed returns (uint256) {\r\n        return data.standDown;\r\n    }\r\n\r\n    function tokenErc20() public override view returns (TokenErc20) {\r\n        return data.tokenErc20;\r\n    }\r\n\r\n    function voters(address i) public view returns (bool) {\r\n        return data.voters[i];\r\n    }\r\n\r\n    function resolution()\r\n        public\r\n        view\r\n        isclosed\r\n        returns (\r\n            bool,\r\n            uint256,\r\n            string memory,\r\n            string memory\r\n        )\r\n    {\r\n        return (accepted(), data.endtime, data.title, data.proposal);\r\n    }\r\n\r\n    function closed() public view returns (bool) {\r\n        return data.starttime > 0 && data.endtime > 0 && block.timestamp >= data.endtime;\r\n    }\r\n\r\n    function started() public view returns (bool) {\r\n        return data.starttime > 0 && data.endtime > 0 && block.timestamp >= data.starttime;\r\n    }\r\n\r\n    function running() public view returns (bool) {\r\n        return started() && !closed();\r\n    }\r\n\r\n    function accepted() public view isclosed returns (bool) {\r\n        return data.aye > data.nay;\r\n    }\r\n\r\n    function rejected() public view isclosed returns (bool) {\r\n        return data.aye <= data.nay;\r\n    }\r\n\r\n    function votes() public view isclosed returns (uint256, uint256) {\r\n        return (data.aye, data.nay);\r\n    }\r\n\r\n    function canVote(address sender) public view returns (bool) {\r\n        return !closed() && !data.voters[sender];\r\n    }\r\n\r\n    function castVote(\r\n        LibVoting.Vote vote,\r\n        uint8 v,\r\n        bytes32 r,\r\n        bytes32 s\r\n    ) public restrict isRunning {\r\n        data.castVote(vote, address(this), v, r, s);\r\n    }\r\n\r\n    /* function voteYes(\r\n        uint8 v,\r\n        bytes32 r,\r\n        bytes32 s\r\n    ) public restrict isRunning {\r\n        data.voteYes(address(this), v, r, s);\r\n    }\r\n\r\n    function voteNo(\r\n        uint8 v,\r\n        bytes32 r,\r\n        bytes32 s\r\n    ) public restrict isRunning {\r\n        data.voteNo(address(this), v, r, s);\r\n    }\r\n\r\n    function voteAbstain(\r\n        uint8 v,\r\n        bytes32 r,\r\n        bytes32 s\r\n    ) public restrict isRunning {\r\n        data.voteAbstain(address(this), v, r, s);\r\n    }\r\n\r\n    function voteStandDown(\r\n        uint8 v,\r\n        bytes32 r,\r\n        bytes32 s\r\n    ) public restrict isRunning {\r\n        data.voteStandDown(address(this), v, r, s);\r\n    } */\r\n}\r\n",
  "sourcePath": "D:\\Development\\github\\assembly-contracts\\contracts\\Voting.sol",
  "compiler": {
    "name": "solc",
    "version": "0.6.12+commit.27d51765.Emscripten.clang"
  },
  "schemaVersion": "3.3.2",
  "updatedAt": "2021-01-07T13:20:38.298Z",
  "devdoc": {
    "kind": "dev",
    "methods": {},
    "version": 1
  },
  "userdoc": {
    "kind": "user",
    "methods": {},
    "version": 1
  }
}